{
  "_format": "hh-sol-artifact-1",
  "contractName": "USDCBatchDeployer",
  "sourceName": "contracts/util/USDCBatchDeployer.sol",
  "abi": [
    {
      "inputs": [
        {
          "internalType": "bytes",
          "name": "implBytecode",
          "type": "bytes"
        },
        {
          "internalType": "bytes",
          "name": "proxyBaseBytecode",
          "type": "bytes"
        },
        {
          "internalType": "bytes",
          "name": "mmBaseBytecode",
          "type": "bytes"
        },
        {
          "components": [
            {
              "internalType": "string",
              "name": "name",
              "type": "string"
            },
            {
              "internalType": "string",
              "name": "symbol",
              "type": "string"
            },
            {
              "internalType": "string",
              "name": "currency",
              "type": "string"
            },
            {
              "internalType": "uint8",
              "name": "decimals",
              "type": "uint8"
            },
            {
              "internalType": "address",
              "name": "owner",
              "type": "address"
            },
            {
              "internalType": "address",
              "name": "proxyAdmin",
              "type": "address"
            }
          ],
          "internalType": "struct USDCBatchDeployer.Config",
          "name": "config",
          "type": "tuple"
        }
      ],
      "stateMutability": "nonpayable",
      "type": "constructor"
    },
    {
      "inputs": [],
      "name": "implementation",
      "outputs": [
        {
          "internalType": "address",
          "name": "",
          "type": "address"
        }
      ],
      "stateMutability": "view",
      "type": "function"
    },
    {
      "inputs": [],
      "name": "masterMinter",
      "outputs": [
        {
          "internalType": "address",
          "name": "",
          "type": "address"
        }
      ],
      "stateMutability": "view",
      "type": "function"
    },
    {
      "inputs": [],
      "name": "proxy",
      "outputs": [
        {
          "internalType": "address",
          "name": "",
          "type": "address"
        }
      ],
      "stateMutability": "view",
      "type": "function"
    }
  ],
  "bytecode": "0x608060405234801561001057600080fd5b506040516109be3803806109be83398101604081905261002f916104ba565b60008451602086016000f090506001600160a01b03811661006b5760405162461bcd60e51b8152600401610062906107b7565b60405180910390fd5b600180546001600160a01b0319166001600160a01b038316179055604051606090859061009c908490602001610666565b60408051601f19818403018152908290526100ba9291602001610637565b604051602081830303815290604052905060008151602083016000f090506001600160a01b0381166100fe5760405162461bcd60e51b81526004016100629061076d565b600080546001600160a01b0319166001600160a01b038316179055604051606090869061012f908490602001610666565b60408051601f198184030181529082905261014d9291602001610637565b604051602081830303815290604052905060008151602083016000f090506001600160a01b0381166101915760405162461bcd60e51b815260040161006290610800565b600280546001600160a01b0319166001600160a01b038316908117909155608087015160405163f2fde38b60e01b815263f2fde38b916101d391600401610666565b600060405180830381600087803b1580156101ed57600080fd5b505af1158015610201573d6000803e3d6000fd5b50505060a08701516040516308f2839760e41b81526001600160a01b0386169250638f2839709161023491600401610666565b600060405180830381600087803b15801561024e57600080fd5b505af1158015610262573d6000803e3d6000fd5b5050875160208901516040808b015160608c015160808d01519251633357162b60e01b81528a97506001600160a01b0388169650633357162b956102b5959094909392918a9190819081906004016106f4565b600060405180830381600087803b1580156102cf57600080fd5b505af11580156102e3573d6000803e3d6000fd5b505088516040516335823a9960e21b81526001600160a01b038516935063d608ea64925061031491906004016106da565b600060405180830381600087803b15801561032e57600080fd5b505af1158015610342573d6000803e3d6000fd5b5050506080880151604051632fc81e0960e01b81526001600160a01b0384169250632fc81e099161037591600401610666565b600060405180830381600087803b15801561038f57600080fd5b505af11580156103a3573d6000803e3d6000fd5b505060408051600081526020808201928390528b01516310c08e6d60e21b9092526001600160a01b038516935063430239b492506103e4916024820161067a565b600060405180830381600087803b1580156103fe57600080fd5b505af1158015610412573d6000803e3d6000fd5b505050505050505050505050505061089d565b80516001600160a01b038116811461043c57600080fd5b92915050565b600082601f830112610452578081fd5b81516001600160401b03811115610467578182fd5b61047a601f8201601f1916602001610847565b915080825283602082850101111561049157600080fd5b6104a281602084016020860161086d565b5092915050565b805160ff8116811461043c57600080fd5b600080600080608085870312156104cf578384fd5b84516001600160401b03808211156104e5578586fd5b6104f188838901610442565b95506020870151915080821115610506578485fd5b61051288838901610442565b94506040870151915080821115610527578384fd5b61053388838901610442565b93506060870151915080821115610548578283fd5b9086019060c0828903121561055b578283fd5b61056560c0610847565b825182811115610573578485fd5b61057f8a828601610442565b825250602083015182811115610593578485fd5b61059f8a828601610442565b6020830152506040830151828111156105b6578485fd5b6105c28a828601610442565b6040830152506105d589606085016104a9565b60608201526105e78960808501610425565b60808201526105f98960a08501610425565b60a08201529598949750929550505050565b6000815180845261062381602086016020860161086d565b601f01601f19169290920160200192915050565b6000835161064981846020880161086d565b83519083019061065d81836020880161086d565b01949350505050565b6001600160a01b0391909116815260200190565b604080825283519082018190526000906020906060840190828701845b828110156106bc5781516001600160a01b031684529284019290840190600101610697565b505050838103828501526106d0818661060b565b9695505050505050565b6000602082526106ed602083018461060b565b9392505050565b60006101008083526107088184018c61060b565b9050828103602084015261071c818b61060b565b90508281036040840152610730818a61060b565b60ff98909816606084015250506001600160a01b03948516608082015292841660a084015290831660c083015290911660e0909101529392505050565b6020808252602a908201527f5553444342617463684465706c6f7965723a2050726f7879206465706c6f796d604082015269195b9d0819985a5b195960b21b606082015260800190565b60208082526029908201527f5553444342617463684465706c6f7965723a20496d706c206465706c6f796d656040820152681b9d0819985a5b195960ba1b606082015260800190565b60208082526027908201527f5553444342617463684465706c6f7965723a204d4d206465706c6f796d656e746040820152660819985a5b195960ca1b606082015260800190565b6040518181016001600160401b038111828210171561086557600080fd5b604052919050565b60005b83811015610888578181015183820152602001610870565b83811115610897576000848401525b50505050565b610112806108ac6000396000f3fe6080604052348015600f57600080fd5b5060043610603c5760003560e01c806335d99f351460415780635c60da1b14605b578063ec556889146061575b600080fd5b60476067565b6040516052919060bb565b60405180910390f35b60476083565b6047609f565b60025473ffffffffffffffffffffffffffffffffffffffff1681565b60015473ffffffffffffffffffffffffffffffffffffffff1681565b60005473ffffffffffffffffffffffffffffffffffffffff1681565b73ffffffffffffffffffffffffffffffffffffffff9190911681526020019056fea2646970667358221220e64bc5ad904389e4f8c080b64658b778115f0a5546eab413cd3f83fe518d9f0a64736f6c634300060c0033",
  "linkReferences": {},
  "deployedLinkReferences": {}
}