{
  "_format": "hh-sol-artifact-1",
  "contractName": "USDCFactory",
  "sourceName": "contracts/util/USDCFactory.sol",
  "abi": [
    {
      "anonymous": false,
      "inputs": [
        {
          "indexed": false,
          "internalType": "address",
          "name": "proxy",
          "type": "address"
        },
        {
          "indexed": false,
          "internalType": "address",
          "name": "implementation",
          "type": "address"
        },
        {
          "indexed": false,
          "internalType": "address",
          "name": "masterMinter",
          "type": "address"
        },
        {
          "indexed": false,
          "internalType": "address",
          "name": "owner",
          "type": "address"
        }
      ],
      "name": "USDCDeployed",
      "type": "event"
    },
    {
      "inputs": [
        {
          "internalType": "address",
          "name": "_implementation",
          "type": "address"
        },
        {
          "components": [
            {
              "internalType": "string",
              "name": "name",
              "type": "string"
            },
            {
              "internalType": "string",
              "name": "symbol",
              "type": "string"
            },
            {
              "internalType": "string",
              "name": "currency",
              "type": "string"
            },
            {
              "internalType": "uint8",
              "name": "decimals",
              "type": "uint8"
            },
            {
              "internalType": "address",
              "name": "owner",
              "type": "address"
            },
            {
              "internalType": "address",
              "name": "proxyAdmin",
              "type": "address"
            }
          ],
          "internalType": "struct USDCFactory.Config",
          "name": "config",
          "type": "tuple"
        }
      ],
      "name": "deployUSDC",
      "outputs": [
        {
          "internalType": "address",
          "name": "_proxyAddr",
          "type": "address"
        },
        {
          "internalType": "address",
          "name": "_mmAddr",
          "type": "address"
        }
      ],
      "stateMutability": "nonpayable",
      "type": "function"
    },
    {
      "inputs": [],
      "name": "implementation",
      "outputs": [
        {
          "internalType": "address",
          "name": "",
          "type": "address"
        }
      ],
      "stateMutability": "view",
      "type": "function"
    },
    {
      "inputs": [],
      "name": "masterMinter",
      "outputs": [
        {
          "internalType": "address",
          "name": "",
          "type": "address"
        }
      ],
      "stateMutability": "view",
      "type": "function"
    },
    {
      "inputs": [],
      "name": "proxy",
      "outputs": [
        {
          "internalType": "address",
          "name": "",
          "type": "address"
        }
      ],
      "stateMutability": "view",
      "type": "function"
    }
  ],
  "bytecode": "0x608060405234801561001057600080fd5b506127d3806100206000396000f3fe608060405234801561001057600080fd5b506004361061004c5760003560e01c806335d99f35146100515780635c60da1b1461006f5780638c42bc9314610077578063ec55688914610098575b600080fd5b6100596100a0565b604051610066919061080f565b60405180910390f35b6100596100bc565b61008a6100853660046106aa565b6100d8565b604051610066929190610830565b610059610366565b60025473ffffffffffffffffffffffffffffffffffffffff1681565b60015473ffffffffffffffffffffffffffffffffffffffff1681565b600180547fffffffffffffffffffffffff00000000000000000000000000000000000000001673ffffffffffffffffffffffffffffffffffffffff841617905560405160009081908190859061012d906105ce565b610137919061080f565b604051809103906000f080158015610153573d6000803e3d6000fd5b50600080547fffffffffffffffffffffffff00000000000000000000000000000000000000001673ffffffffffffffffffffffffffffffffffffffff83161781556040519194508492509082906101a9906105db565b6101b3919061080f565b604051809103906000f0801580156101cf573d6000803e3d6000fd5b50600280547fffffffffffffffffffffffff00000000000000000000000000000000000000001673ffffffffffffffffffffffffffffffffffffffff831690811790915560808701516040517ff2fde38b000000000000000000000000000000000000000000000000000000008152929550859350909163f2fde38b916102589160040161080f565b600060405180830381600087803b15801561027257600080fd5b505af1158015610286573d6000803e3d6000fd5b50505060a08601516040517f8f28397000000000000000000000000000000000000000000000000000000000815273ffffffffffffffffffffffffffffffffffffffff85169250638f283970916102df9160040161080f565b600060405180830381600087803b1580156102f957600080fd5b505af115801561030d573d6000803e3d6000fd5b5050505061031c848487610382565b7f95dac4c76a48d6ff7720963c10f2ad6e3c328c244768b7de2f670083ac54f19984878588608001516040516103559493929190610857565b60405180910390a150509250929050565b60005473ffffffffffffffffffffffffffffffffffffffff1681565b805160208201516040808401516060850151608086015192517f3357162b000000000000000000000000000000000000000000000000000000008152889573ffffffffffffffffffffffffffffffffffffffff871695633357162b956103f595929491938b919081908190600401610916565b600060405180830381600087803b15801561040f57600080fd5b505af1158015610423573d6000803e3d6000fd5b505083516040517fd608ea6400000000000000000000000000000000000000000000000000000000815273ffffffffffffffffffffffffffffffffffffffff8516935063d608ea64925061047a91906004016108fc565b600060405180830381600087803b15801561049457600080fd5b505af11580156104a8573d6000803e3d6000fd5b50505060808301516040517f2fc81e0900000000000000000000000000000000000000000000000000000000815273ffffffffffffffffffffffffffffffffffffffff84169250632fc81e09916105019160040161080f565b600060405180830381600087803b15801561051b57600080fd5b505af115801561052f573d6000803e3d6000fd5b505060408051600081526020808201928390528601517f430239b40000000000000000000000000000000000000000000000000000000090925273ffffffffffffffffffffffffffffffffffffffff8516935063430239b49250610596916024820161088f565b600060405180830381600087803b1580156105b057600080fd5b505af11580156105c4573d6000803e3d6000fd5b5050505050505050565b61083d806109e983390190565b6115788061122683390190565b803573ffffffffffffffffffffffffffffffffffffffff8116811461060c57600080fd5b92915050565b600082601f830112610622578081fd5b813567ffffffffffffffff811115610638578182fd5b61066960207fffffffffffffffffffffffffffffffffffffffffffffffffffffffffffffffe0601f8401160161099c565b915080825283602082850101111561068057600080fd5b8060208401602084013760009082016020015292915050565b803560ff8116811461060c57600080fd5b600080604083850312156106bc578182fd5b82356106c7816109c3565b9150602083013567ffffffffffffffff808211156106e3578283fd5b9084019060c082870312156106f6578283fd5b61070060c061099c565b82358281111561070e578485fd5b61071a88828601610612565b82525060208301358281111561072e578485fd5b61073a88828601610612565b602083015250604083013582811115610751578485fd5b61075d88828601610612565b6040830152506107708760608501610699565b606082015261078287608085016105e8565b60808201526107948760a085016105e8565b60a08201528093505050509250929050565b60008151808452815b818110156107cb576020818501810151868301820152016107af565b818111156107dc5782602083870101525b50601f017fffffffffffffffffffffffffffffffffffffffffffffffffffffffffffffffe0169290920160200192915050565b73ffffffffffffffffffffffffffffffffffffffff91909116815260200190565b73ffffffffffffffffffffffffffffffffffffffff92831681529116602082015260400190565b73ffffffffffffffffffffffffffffffffffffffff948516815292841660208401529083166040830152909116606082015260800190565b604080825283519082018190526000906020906060840190828701845b828110156108de57815173ffffffffffffffffffffffffffffffffffffffff16845292840192908401906001016108ac565b505050838103828501526108f281866107a6565b9695505050505050565b60006020825261090f60208301846107a6565b9392505050565b600061010080835261092a8184018c6107a6565b9050828103602084015261093e818b6107a6565b90508281036040840152610952818a6107a6565b60ff989098166060840152505073ffffffffffffffffffffffffffffffffffffffff948516608082015292841660a084015290831660c083015290911660e0909101529392505050565b60405181810167ffffffffffffffff811182821017156109bb57600080fd5b604052919050565b73ffffffffffffffffffffffffffffffffffffffff811681146109e557600080fd5b5056fe608060405234801561001057600080fd5b5060405161083d38038061083d8339818101604052602081101561003357600080fd5b5051808061004081610051565b5061004a336100c3565b50506100ed565b610064816100e760201b61042a1760201c565b61009f5760405162461bcd60e51b815260040180806020018281038252603b815260200180610802603b913960400191505060405180910390fd5b7f7050c9e0f4ca769c69bd3a8ef740bc37934f8e2c036e5a723fd8ee048ed3f8c355565b7f10d6a54a4754c8869d6886b5f5d7fbfa5b4522237ea5c60d11bc4e7a1ff9390b55565b3b151590565b610706806100fc6000396000f3fe60806040526004361061005a5760003560e01c80635c60da1b116100435780635c60da1b146101315780638f2839701461016f578063f851a440146101af5761005a565b80633659cfe6146100645780634f1ef286146100a4575b6100626101c4565b005b34801561007057600080fd5b506100626004803603602081101561008757600080fd5b503573ffffffffffffffffffffffffffffffffffffffff166101de565b610062600480360360408110156100ba57600080fd5b73ffffffffffffffffffffffffffffffffffffffff82351691908101906040810160208201356401000000008111156100f257600080fd5b82018360208201111561010457600080fd5b8035906020019184600183028401116401000000008311171561012657600080fd5b509092509050610232565b34801561013d57600080fd5b50610146610309565b6040805173ffffffffffffffffffffffffffffffffffffffff9092168252519081900360200190f35b34801561017b57600080fd5b506100626004803603602081101561019257600080fd5b503573ffffffffffffffffffffffffffffffffffffffff16610318565b3480156101bb57600080fd5b50610146610420565b6101cc610430565b6101dc6101d76104c4565b6104e9565b565b6101e661050d565b73ffffffffffffffffffffffffffffffffffffffff163373ffffffffffffffffffffffffffffffffffffffff1614156102275761022281610532565b61022f565b61022f6101c4565b50565b61023a61050d565b73ffffffffffffffffffffffffffffffffffffffff163373ffffffffffffffffffffffffffffffffffffffff1614156102fc5761027683610532565b60003073ffffffffffffffffffffffffffffffffffffffff16348484604051808383808284376040519201945060009350909150508083038185875af1925050503d80600081146102e3576040519150601f19603f3d011682016040523d82523d6000602084013e6102e8565b606091505b50509050806102f657600080fd5b50610304565b6103046101c4565b505050565b60006103136104c4565b905090565b61032061050d565b73ffffffffffffffffffffffffffffffffffffffff163373ffffffffffffffffffffffffffffffffffffffff1614156102275773ffffffffffffffffffffffffffffffffffffffff81166103bf576040517f08c379a00000000000000000000000000000000000000000000000000000000081526004018080602001828103825260368152602001806106606036913960400191505060405180910390fd5b7f7e644d79422f17c01e4894b5f4f588d331ebfa28653d42ae832dc59e38c9798f6103e861050d565b6040805173ffffffffffffffffffffffffffffffffffffffff928316815291841660208301528051918290030190a161022281610587565b600061031361050d565b3b151590565b61043861050d565b73ffffffffffffffffffffffffffffffffffffffff163373ffffffffffffffffffffffffffffffffffffffff1614156104bc576040517f08c379a000000000000000000000000000000000000000000000000000000000815260040180806020018281038252603281526020018061062e6032913960400191505060405180910390fd5b6101dc6101dc565b7f7050c9e0f4ca769c69bd3a8ef740bc37934f8e2c036e5a723fd8ee048ed3f8c35490565b3660008037600080366000845af43d6000803e808015610508573d6000f35b3d6000fd5b7f10d6a54a4754c8869d6886b5f5d7fbfa5b4522237ea5c60d11bc4e7a1ff9390b5490565b61053b816105ab565b6040805173ffffffffffffffffffffffffffffffffffffffff8316815290517fbc7cd75a20ee27fd9adebab32041f755214dbc6bffa90cc0225b39da2e5c2d3b9181900360200190a150565b7f10d6a54a4754c8869d6886b5f5d7fbfa5b4522237ea5c60d11bc4e7a1ff9390b55565b6105b48161042a565b610609576040517f08c379a000000000000000000000000000000000000000000000000000000000815260040180806020018281038252603b815260200180610696603b913960400191505060405180910390fd5b7f7050c9e0f4ca769c69bd3a8ef740bc37934f8e2c036e5a723fd8ee048ed3f8c35556fe43616e6e6f742063616c6c2066616c6c6261636b2066756e6374696f6e2066726f6d207468652070726f78792061646d696e43616e6e6f74206368616e6765207468652061646d696e206f6620612070726f787920746f20746865207a65726f206164647265737343616e6e6f742073657420612070726f787920696d706c656d656e746174696f6e20746f2061206e6f6e2d636f6e74726163742061646472657373a2646970667358221220015908007e367e7f333ec38084b88f027c06160d2c19e5bdd8027e8d06acf8bf64736f6c634300060c003343616e6e6f742073657420612070726f787920696d706c656d656e746174696f6e20746f2061206e6f6e2d636f6e74726163742061646472657373608060405234801561001057600080fd5b506040516115783803806115788339818101604052602081101561003357600080fd5b50518061003f33610065565b600280546001600160a01b0319166001600160a01b039290921691909117905550610087565b600080546001600160a01b0319166001600160a01b0392909216919091179055565b6114e2806100966000396000f3fe608060405234801561001057600080fd5b50600436106100c95760003560e01c8063c011b1c311610081578063ea7215691161005b578063ea72156914610215578063f2fde38b1461021d578063f6a74ed714610250576100c9565b8063c011b1c31461018a578063c4faf7df146101bd578063cbf2b8bf146101f8576100c9565b80637c6b8ef5116100b25780637c6b8ef5146101345780638da5cb5b146101515780639398608b14610182576100c9565b806333db2ad2146100ce578063542fef91146100ff575b600080fd5b6100eb600480360360208110156100e457600080fd5b5035610283565b604080519115158252519081900360200190f35b6101326004803603602081101561011557600080fd5b503573ffffffffffffffffffffffffffffffffffffffff16610573565b005b6100eb6004803603602081101561014a57600080fd5b5035610687565b61015961098b565b6040805173ffffffffffffffffffffffffffffffffffffffff9092168252519081900360200190f35b6101596109a7565b610159600480360360208110156101a057600080fd5b503573ffffffffffffffffffffffffffffffffffffffff166109c3565b610132600480360360408110156101d357600080fd5b5073ffffffffffffffffffffffffffffffffffffffff813581169160200135166109ee565b6100eb6004803603602081101561020e57600080fd5b5035610bc8565b6100eb610cb5565b6101326004803603602081101561023357600080fd5b503573ffffffffffffffffffffffffffffffffffffffff16610e2b565b6101326004803603602081101561026657600080fd5b503573ffffffffffffffffffffffffffffffffffffffff16610f7e565b3360009081526001602052604081205473ffffffffffffffffffffffffffffffffffffffff166102fe576040517f08c379a00000000000000000000000000000000000000000000000000000000081526004018080602001828103825260358152602001806113dc6035913960400191505060405180910390fd5b60008211610357576040517f08c379a000000000000000000000000000000000000000000000000000000000815260040180806020018281038252602a815260200180611411602a913960400191505060405180910390fd5b336000908152600160209081526040918290205460025483517faa271e1a00000000000000000000000000000000000000000000000000000000815273ffffffffffffffffffffffffffffffffffffffff928316600482018190529451929091169263aa271e1a92602480840193829003018186803b1580156103d957600080fd5b505afa1580156103ed573d6000803e3d6000fd5b505050506040513d602081101561040357600080fd5b505161045a576040517f08c379a000000000000000000000000000000000000000000000000000000000815260040180806020018281038252603981526020018061143b6039913960400191505060405180910390fd5b600254604080517f8a6db9c300000000000000000000000000000000000000000000000000000000815273ffffffffffffffffffffffffffffffffffffffff848116600483015291516000939290921691638a6db9c391602480820192602092909190829003018186803b1580156104d157600080fd5b505afa1580156104e5573d6000803e3d6000fd5b505050506040513d60208110156104fb57600080fd5b50519050600061050b8286611161565b6040805187815260208101839052815192935073ffffffffffffffffffffffffffffffffffffffff86169233927f3703d23abba1e61f32acc0682fc062ea5c710672c7d100af5ecd08485e983ad0928290030190a361056a83826111d5565b95945050505050565b60005473ffffffffffffffffffffffffffffffffffffffff1633146105f957604080517f08c379a000000000000000000000000000000000000000000000000000000000815260206004820181905260248201527f4f776e61626c653a2063616c6c6572206973206e6f7420746865206f776e6572604482015290519081900360640190fd5b60025460405173ffffffffffffffffffffffffffffffffffffffff8084169216907f9992ea32e96992be98be5c833cd5b9fd77314819d2146b6f06ab9cfef957af1290600090a3600280547fffffffffffffffffffffffff00000000000000000000000000000000000000001673ffffffffffffffffffffffffffffffffffffffff92909216919091179055565b3360009081526001602052604081205473ffffffffffffffffffffffffffffffffffffffff16610702576040517f08c379a00000000000000000000000000000000000000000000000000000000081526004018080602001828103825260358152602001806113dc6035913960400191505060405180910390fd5b6000821161075b576040517f08c379a000000000000000000000000000000000000000000000000000000000815260040180806020018281038252602a815260200180611346602a913960400191505060405180910390fd5b336000908152600160209081526040918290205460025483517faa271e1a00000000000000000000000000000000000000000000000000000000815273ffffffffffffffffffffffffffffffffffffffff928316600482018190529451929091169263aa271e1a92602480840193829003018186803b1580156107dd57600080fd5b505afa1580156107f1573d6000803e3d6000fd5b505050506040513d602081101561080757600080fd5b505161085e576040517f08c379a00000000000000000000000000000000000000000000000000000000081526004018080602001828103825260398152602001806114746039913960400191505060405180910390fd5b600254604080517f8a6db9c300000000000000000000000000000000000000000000000000000000815273ffffffffffffffffffffffffffffffffffffffff848116600483015291516000939290921691638a6db9c391602480820192602092909190829003018186803b1580156108d557600080fd5b505afa1580156108e9573d6000803e3d6000fd5b505050506040513d60208110156108ff57600080fd5b5051905060008482116109125781610914565b845b905060006109228383611287565b6040805184815260208101839052815192935073ffffffffffffffffffffffffffffffffffffffff87169233927f3cc75d3bf58b0100659088c03539964108d5d06342e1bd8085ee43ad8ff6f69a928290030190a361098184826111d5565b9695505050505050565b60005473ffffffffffffffffffffffffffffffffffffffff1690565b60025473ffffffffffffffffffffffffffffffffffffffff1690565b73ffffffffffffffffffffffffffffffffffffffff9081166000908152600160205260409020541690565b60005473ffffffffffffffffffffffffffffffffffffffff163314610a7457604080517f08c379a000000000000000000000000000000000000000000000000000000000815260206004820181905260248201527f4f776e61626c653a2063616c6c6572206973206e6f7420746865206f776e6572604482015290519081900360640190fd5b73ffffffffffffffffffffffffffffffffffffffff8216610ae0576040517f08c379a00000000000000000000000000000000000000000000000000000000081526004018080602001828103825260258152602001806113706025913960400191505060405180910390fd5b73ffffffffffffffffffffffffffffffffffffffff8116610b4c576040517f08c379a00000000000000000000000000000000000000000000000000000000081526004018080602001828103825260218152602001806113bb6021913960400191505060405180910390fd5b73ffffffffffffffffffffffffffffffffffffffff82811660008181526001602052604080822080547fffffffffffffffffffffffff0000000000000000000000000000000000000000169486169485179055517fa56687ff5096e83f6e2c673cda0b677f56bbfcdf5fe0555d5830c407ede193cb9190a35050565b3360009081526001602052604081205473ffffffffffffffffffffffffffffffffffffffff16610c43576040517f08c379a00000000000000000000000000000000000000000000000000000000081526004018080602001828103825260358152602001806113dc6035913960400191505060405180910390fd5b33600081815260016020908152604091829020548251868152925173ffffffffffffffffffffffffffffffffffffffff90911693849390927f5b0b60a4f757b33d9dcb8bd021b6aa371bb2e6f134086797aefcd8c0afab538c92918290030190a3610cae81846111d5565b9392505050565b3360009081526001602052604081205473ffffffffffffffffffffffffffffffffffffffff16610d30576040517f08c379a00000000000000000000000000000000000000000000000000000000081526004018080602001828103825260358152602001806113dc6035913960400191505060405180910390fd5b3360008181526001602052604080822054905173ffffffffffffffffffffffffffffffffffffffff90911692839290917f4b5ef9a786cf64a7d82ebcf2d5132667edc9faef4ac36260d9a9e52c526b62329190a3600254604080517f3092afd500000000000000000000000000000000000000000000000000000000815273ffffffffffffffffffffffffffffffffffffffff848116600483015291519190921691633092afd59160248083019260209291908290030181600087803b158015610df957600080fd5b505af1158015610e0d573d6000803e3d6000fd5b505050506040513d6020811015610e2357600080fd5b505191505090565b60005473ffffffffffffffffffffffffffffffffffffffff163314610eb157604080517f08c379a000000000000000000000000000000000000000000000000000000000815260206004820181905260248201527f4f776e61626c653a2063616c6c6572206973206e6f7420746865206f776e6572604482015290519081900360640190fd5b73ffffffffffffffffffffffffffffffffffffffff8116610f1d576040517f08c379a00000000000000000000000000000000000000000000000000000000081526004018080602001828103825260268152602001806113956026913960400191505060405180910390fd5b6000546040805173ffffffffffffffffffffffffffffffffffffffff9283168152918316602083015280517f8be0079c531659141344cd1fd0a4f28419497f9722a3daafe3b4186f6b6457e09281900390910190a1610f7b816112fe565b50565b60005473ffffffffffffffffffffffffffffffffffffffff16331461100457604080517f08c379a000000000000000000000000000000000000000000000000000000000815260206004820181905260248201527f4f776e61626c653a2063616c6c6572206973206e6f7420746865206f776e6572604482015290519081900360640190fd5b73ffffffffffffffffffffffffffffffffffffffff8116611070576040517f08c379a00000000000000000000000000000000000000000000000000000000081526004018080602001828103825260258152602001806113706025913960400191505060405180910390fd5b73ffffffffffffffffffffffffffffffffffffffff818116600090815260016020526040902054166110ed576040517f08c379a00000000000000000000000000000000000000000000000000000000081526004018080602001828103825260218152602001806113bb6021913960400191505060405180910390fd5b73ffffffffffffffffffffffffffffffffffffffff811660008181526001602052604080822080547fffffffffffffffffffffffff0000000000000000000000000000000000000000169055517f33d83959be2573f5453b12eb9d43b3499bc57d96bd2f067ba44803c859e811139190a250565b600082820183811015610cae57604080517f08c379a000000000000000000000000000000000000000000000000000000000815260206004820152601b60248201527f536166654d6174683a206164646974696f6e206f766572666c6f770000000000604482015290519081900360640190fd5b600254604080517f4e44d95600000000000000000000000000000000000000000000000000000000815273ffffffffffffffffffffffffffffffffffffffff85811660048301526024820185905291516000939290921691634e44d9569160448082019260209290919082900301818787803b15801561125457600080fd5b505af1158015611268573d6000803e3d6000fd5b505050506040513d602081101561127e57600080fd5b50519392505050565b6000828211156112f857604080517f08c379a000000000000000000000000000000000000000000000000000000000815260206004820152601e60248201527f536166654d6174683a207375627472616374696f6e206f766572666c6f770000604482015290519081900360640190fd5b50900390565b600080547fffffffffffffffffffffffff00000000000000000000000000000000000000001673ffffffffffffffffffffffffffffffffffffffff9290921691909117905556fe416c6c6f77616e63652064656372656d656e74206d7573742062652067726561746572207468616e2030436f6e74726f6c6c6572206d7573742062652061206e6f6e2d7a65726f20616464726573734f776e61626c653a206e6577206f776e657220697320746865207a65726f2061646472657373576f726b6572206d7573742062652061206e6f6e2d7a65726f20616464726573735468652076616c7565206f6620636f6e74726f6c6c6572735b6d73672e73656e6465725d206d757374206265206e6f6e2d7a65726f416c6c6f77616e636520696e6372656d656e74206d7573742062652067726561746572207468616e203043616e206f6e6c7920696e6372656d656e7420616c6c6f77616e636520666f72206d696e7465727320696e206d696e7465724d616e6167657243616e206f6e6c792064656372656d656e7420616c6c6f77616e636520666f72206d696e7465727320696e206d696e7465724d616e61676572a2646970667358221220fd5ce9639e2a336197c4d84d54c1626e0b95403c9f9b33da7dca012075bcb19764736f6c634300060c0033a2646970667358221220a74b2bfa5fe83f58afcd9664b2ca463f14b91e3be93686c29359312b27b054d864736f6c634300060c0033",
  "linkReferences": {},
  "deployedLinkReferences": {}
}